:020000020000FC
:020000000DC031
:10001C000FE50DBF02E00EBF10E020E040E034E63B
:10002C0017D034E12ED035E02CD035E02AD03AE090
:10003C0028D03BE041D035E017D03CE015D035E07E
:10004C003BD034E139D034E10FD03AE00DD0FFCFC2
:10005C0021E0D0E0C0E632172AF00FEF088321969A
:10006C002395F9CF10E0089521E040E0D0E0C0E600
:10007C00121732F00881301711F02395F9CF41E0B7
:10008C000895F2DF442311F040E00895212F40E061
:10009C00D0E0C0E6C10FCA95222349F008810317AE
:1000AC0032F0C3950883CA95CA952A95F5CF41E0DD
:1000BC001395C3953883089521E040E0D0E0C0E665
:1000CC001217A2F0442331F40881301719F021964D
:1000DC002395F6CF442319F441E01A95F1CF2196DC
:1000EC000881C150088321962395EACF0895BD3924
:0400FC0059DFFF6C5D
:00000001FF
