:020000020000FC
:040000000C942A0032
:10004C000C94FB000C94450011241FBECFE5D4E0AA
:10005C00DEBFCDBF10E0A0E6B0E0E6E1F4E002C008
:10006C0005900D92A236B107D9F710E0A2E6B0E0E8
:10007C0001C01D92AA39B107E1F70E9447000C9408
:10008C000000AAD1BCD10FEF0ABB04BB78940E942C
:10009C00F3000E9466000E9461008823D1F30E9445
:1000AC005E0085BB0E941202382FB0D180E0F1CFE8
:1000BC008091600008958091620010926200089512
:1000CC0080916300882309F59FEF97BB8FE087BB76
:1000DC0096BB809164008F5F80936400843010F035
:1000EC001092640087EF90E00090640002C0959538
:1000FC0087950A94E2F7806F88BB81E090E00E94BC
:10010C0040018093000081E027C0813041F580914F
:10011C0065000E945301882311F186B38093660019
:10012C008091650061E070E00E94240187EF90E00F
:10013C000090640002C0959587950A94E2F7806F51
:10014C0020916600281739F41092630080916500A5
:10015C000E947601089582E0809363000895809157
:10016C0063008230C9F5809165000E945301882399
:10017C0099F110926300809165000E94760126B37C
:10018C0080916600281741F58091640090E0880FFB
:10019C00991F880F991F982F8093600030E0207F63
:1001AC003070203B310581F0213B310524F42037A0
:1001BC00310579F40BC0203D310521F0203E31058D
:1001CC0041F405C09F5F03C09E5F01C09D5F90938B
:1001DC00600081E08093620008958DE083BF81E030
:1001EC008CBF89B7826089BF08951F920F920FB69A
:1001FC000F9211248F939F93EF93FF93809167003D
:10020C009091680001969093680080936700892B09
:10021C0061F4E9E6F0E08081882311F0815080835D
:10022C00339680E0E939F807B1F7FF91EF919F9190
:10023C008F910F900FBE0F901F9018952091670013
:10024C0030916800260F371F6130710509F412BE1A
:10025C0090E0FC01EE0FFF1FE80FF91FE759FF4F6D
:10026C00328321832617370710F485E001C084E020
:10027C00808308951F93BC01E9E6F0E010E08081D3
:10028C00882321F4812F0E94240104C01F5F339620
:10029C001031A9F7812F1F91089599B79D7F99BFB0
:1002AC0090E0FC01EE0FFF1FE80FF91FE759FF4F1D
:1002BC008081843068F0843069F4218132818091AE
:1002CC006700909168008217930720F083E0808389
:1002DC0091E001C090E089B7826089BF892F0895B1
:1002EC0090E0FC01EE0FFF1FE80FF91FE759FF4FDD
:1002FC0010820895E9E6F0E020E030E0422F8081A2
:10030C00882381F4F901EE0FFF1FE20FF31FE75969
:10031C00FF4F84E080838091670090916800928306
:10032C00818307C04F5F2F5F3F4F339620313105DC
:10033C0029F7842F089590E0FC01EE0FFF1FE80FC2
:10034C00F91FE759FF4F84E08083809167009091FB
:10035C00680092838183089590E0FC01EE0FFF1FEB
:10036C00E80FF91FE759FF4F80818330B8F04091B7
:10037C00670050916800843031F4818192819A0138
:10038C00281B390B0DC0818192814817590730F415
:10039C009C0120953095240F351F02C02FEF3FEFA5
:1003AC00C90108951F930E944001182F812F0E94AC
:1003BC0053018823D9F3812F90E0FC01EE0FFF1F2E
:1003CC00E80FF91FE759FF4F10821F9108950000A5
:1003DC000000000000000895D99828E325BBD89AA6
:1003EC00D898F5DFD9982EE025BBD89AD898EFDFAE
:1003FC00D99826E025BBD89AD898E9DF0895D998E2
:10040C0021E025BBD89AD898E2DF0895D99A35BB5C
:10041C00D89AD898DCDF08958C30F9F08830F9F050
:10042C008430F9F08D30F9F08930F9F08530F9F03D
:10043C008E30F9F08A30F9F08630F9F08B30F9F023
:10044C008030F9F08130F9F08230F9F08330F9F036
:10045C008730F9F08F30F9F020C081E31EC082E3C1
:10046C001CC083E31AC084E318C085E316C086E37E
:10047C0014C087E312C088E310C089E30EC080E388
:10048C000CC085E50AC084E408C082E506C08CE493
:10049C0004C085E402C083E400C00895506C65611B
:0E04AC00736520626520686170707921000020
:00000001FF
