:020000020000FC
:0200000019C025
:02000E0006C02A
:10001C000F930FB70F939395953021F00F910FBF5E
:10002C000F91189553D01EC00FE50DBF02E00EBF07
:10003C00E1D00FEF0ABB04BB01BBF0D010E020E015
:10004C0040E073E634E600D105E003BF02E008BFF0
:10005C0002E009BF0FEF00EF07BB0FE008BBC0E6E3
:10006C00D0E000C00FE008BB0000000006B3006F3A
:10007C000F3F11F4B5D0F6CF28E080E08395220F26
:10008C00222381F30FEF022708BB0000000006B308
:10009C00006F0F3F09F491F320E184508C5F26959B
:1000AC00222301F306B30F70AFE0A2270A17B1F7B2
:1000BC0012C001E002BB70E0B1D0F3E0E2E1BCD0D1
:1000CC0086D0F3E0E4E2B8D0CDCFF5CF73E6A6D07E
:1000DC0000E002BBC7CF733611F4843051F3883083
:1000EC00A9F3733609F402C08C3079F38F30E9F13F
:1000FC008D30A9F08E3009F480E0843031F02AF094
:10010C008A95883011F00AF08A95733641F0703078
:10011C00B9F4813069F08230C1F08330F1F0713084
:10012C0039F0723091F07330C1F0743031F19ACFF4
:10013C0071E074D0F3E0E6E37FD049D051D092CF98
:10014C00382F00E3300F71D08DCF72E067D0F3E021
:10015C00E4E472D03CD044D085CF73E05FD0F3E0C0
:10016C00E2E56AD034D03CD07DCF713031F07230C2
:10017C0071F0733061F0743051F074E04FD0F3E0F3
:10018C00E0E65AD024D02CD090E078946BCF46D0B7
:10019C00F3E0EEE651D0743081F37230B1F273308B
:1001AC00E1F23CD05FCF6CE004E0D998602765BBEE
:1001BC00D89AD89815D0F9CF90E0D9986CE165BB56
:1001CC00D89AD8980DD093959331B9F70895D998BA
:1001DC0067EA65BBD89AD89803D030E226D0089548
:1001EC0041E055E465E46A95F1F75A95E1F74A95D3
:1001FC00D1F70895D99868E365BBD89AD898F0DF01
:10020C00D9986FE065BBD89AD898EADF07D0D9980F
:10021C0066E065BBD89AD898E3DF0895D99861E079
:10022C0065BBD89AD898DCDF08959395D99A35BBDD
:10023C00D89AD898D5DF0895C895002021F0302D94
:10024C00F4DF3196F9CF089521E0D0E0C0E6321703
:10025C002AF00FEF088321962395F9CF10E008952B
:10026C0021E040E0D0E0C0E6121732F008813017F0
:10027C0011F02395F9CF41E00895F2DF442311F0FA
:10028C0040E00895212F40E0D0E0C0E6C10FCA95B0
:10029C00222349F00881031732F0C3950883CA95CD
:1002AC00CA952A95F5CF41E01395C39538830895E7
:1002BC0021E040E0D0E0C0E61217A2F0442331F474
:1002CC000881301719F021962395F6CF442319F4A1
:1002DC0041E01A95F1CF21960881C15008832196EF
:1002EC002395EACF089557454C434F4D45000000E8
:1002FC00746F0000416273656E63652050726F67A6
:10030C0072616D0000004D656E753A202020314100
:10031C006273656E6365000032496E73657274209A
:10032C003344656C657465000000496E707574200B
:10033C0054696D65203A0000496E73657274204EE5
:10034C00504D203A000044656C657465204E504D4C
:10035C00203A0000496E707574204E504D203A00C2
:0A036C00000046696E697368000026
:00000001FF
