:020000020000FC
:0200000019C025
:02000E0006C02A
:10001C000F930FB70F939395953021F00F910FBF5E
:10002C000F91189553D01EC00FE50DBF02E00EBF07
:10003C00DAD00FEF0ABB04BB01BBE9D010E020E023
:10004C0040E073E634E6F9D005E003BF02E008BFF8
:10005C0002E009BF0FEF00EF07BB0FE008BBC0E6E3
:10006C00D0E000C00FE008BB0000000006B3006F3A
:10007C000F3F11F4AED0F6CF28E080E08395220F2D
:10008C00222381F30FEF022708BB0000000006B308
:10009C00006F0F3F09F491F320E184508C5F26959B
:1000AC00222301F306B30F70AFE0A2270A17B1F7B2
:1000BC0012C001E002BB70E0AAD0F3E0E4E0B5D0DE
:1000CC007FD0F3E0E6E1B1D0CDCFF5CF73E69FD092
:1000DC0000E002BBC7CF733611F4843051F3883083
:1000EC00A9F38C3091F38F30D1F18D30A9F08E3093
:1000FC0009F480E0843031F02AF08A95883011F0D0
:10010C000AF08A95733641F07030B1F4813069F0A1
:10011C008230B9F08330E1F0713039F0723089F00F
:10012C007330B1F0743019F19DCF71E070D0F3E001
:10013C00E8E27BD045D096CF382F00E3300F6ED05D
:10014C0091CF72E064D0F3E0E6E36FD039D08ACF80
:10015C0073E05DD0F3E0E4E468D032D083CF71304B
:10016C0031F0723069F0733059F0743049F074E04A
:10017C004ED0F3E0E2E559D023D090E0789472CFE2
:10018C0046D0F3E0E0E651D0743089F37230C9F216
:10019C007330F1F23CD066CF6CE004E0D998602764
:1001AC0065BBD89AD89815D0F9CF90E0D9986CE166
:1001BC0065BBD89AD8980DD093959331B9F708951B
:1001CC00D99867EA65BBD89AD89803D030E226D084
:1001DC00089541E055E465E46A95F1F75A95E1F725
:1001EC004A95D1F70895D99868E365BBD89AD89801
:1001FC00F0DFD9986FE065BBD89AD898EADF07D0C2
:10020C00D99866E065BBD89AD898E3DF0895D99859
:10021C0061E065BBD89AD898DCDF08959395D99A9C
:10022C0035BBD89AD898D5DF0895C895002021F011
:10023C00302DF4DF3196F9CF089521E0D0E0C0E6FF
:10024C0032172AF00FEF088321962395F9CF10E08F
:10025C00089521E040E0D0E0C0E6121732F00881AA
:10026C00301711F02395F9CF41E00895F2DF4423C4
:10027C0011F040E00895212F40E0D0E0C0E6C10F1E
:10028C00CA95222349F00881031732F0C3950883DD
:10029C00CA95CA952A95F5CF41E01395C395388335
:1002AC00089521E040E0D0E0C0E61217A2F044230C
:1002BC0031F40881301719F021962395F6CF442399
:1002CC0019F441E01A95F1CF21960881C1500883A9
:1002DC0021962395EACF089557454C434F4D450041
:1002EC000000746F0000416273656E63652050728C
:1002FC006F6772616D0000004D656E753A202020AD
:10030C0031416273656E6365000032496E736572CC
:10031C0074203344656C657465000000496E70751B
:10032C00742054696D65203A0000496E73657274CF
:10033C00204E504D203A000044656C657465204E8B
:10034C00504D203A0000496E707574204E504D206F
:0C035C003A00000046696E6973680000FA
:00000001FF
