:020000020000FC
:0200000019C025
:02000E0006C02A
:10001C000F930FB70F939A95903021F00F910FBF5C
:10002C000F91189553D01EC00FE50DBF02E00EBF07
:10003C00FDD00FEF0ABB04BB01BB0CD110E020E0DC
:10004C0040E073E634E61CD105E003BF02E008BFD4
:10005C0002E009BF0FEF00EF07BB0FE008BBC0E6E3
:10006C00D0E000C00FE008BB0000000006B3006F3A
:10007C000F3F11F4D4D0F6CF28E080E08395220F07
:10008C00222381F30FEF022708BB0000000006B308
:10009C00006F0F3F09F491F320E184508C5F26959B
:1000AC00222301F306B30F70AFE0A2270A17B1F7B2
:1000BC0012C001E002BB70E0CDD0F3E0EAE4D8D08E
:1000CC00A5D0F3E0ECE5D4D0CDCFF5CF73E6C2D01C
:1000DC0000E002BBC7CF733611F4843051F3883083
:1000EC00A9F38C3091F38F30C1F18D30A9F08E30A3
:1000FC0009F480E0843031F02AF08A95883011F0D0
:10010C000AF08A95733641F07030C9F5813069F088
:10011C00823099F08330C9F0713039F0723069F067
:10012C00733099F0743009F19DCF71E093D050E0A9
:10013C00F3E0EEE69DD06AD095CF72E08BD050E024
:10014C00F3E0ECE795D062D08DCF73E083D050E034
:10015C00F3E0EAE88DD05AD085CF713031F07230AF
:10016C00B9F07330A9F0743099F074E073D050E0AA
:10017C00F3E0E8E97DD04AD095E0789473CF382F3E
:10018C0000E3300F6ED00AE0059F502D580F6ACF58
:10019C0061D0F3E0E6EA6CD07430B1F0723021F04B
:1001AC00733051F057D05ECF352F83D0413011F0E2
:1001BC0013D0C3CF14D0C1CF352F96D0413011F00E
:1001CC000BD0C3CF0CD0C1CF352F66D0413011F03E
:1001DC0003D0CBCF04D0C9CF03E002BB089501E01C
:1001EC0002BB08950CE094E0D998092705BBD89A76
:1001FC00D89815D0F9CF90E0D9980CE105BBD89AD6
:10020C00D8980DD093959331B9F70895D99807EAFA
:10021C0005BBD89AD89803D030E223D0089505E4D2
:10022C0065E40A95F1F76A95E1F70895D99808E322
:10023C0005BBD89AD898F3DFD9980FE005BBD89AAC
:10024C00D898EDDF07D0D99806E005BBD89AD89896
:10025C00E6DF0895D99801E005BBD89AD898DFDF7E
:10026C0008959395D99A35BBD89AD898D8DF089524
:10027C00C895002021F0302DF4DF3196F9CF089588
:10028C0021E0D0E0C0E632172AF00FEF0883219668
:10029C002395F9CF10E0089521E040E0D0E0C0E6CE
:1002AC00121732F00881301711F02395F9CF41E085
:1002BC000895F2DF442311F040E00895212F40E02F
:1002CC00D0E0C0E6C10FCA95222349F0088103177C
:1002DC0032F0C3950883CA95CA952A95F5CF41E0AB
:1002EC001395C3953883089521E040E0D0E0C0E633
:1002FC001217A2F0442331F40881301719F021961B
:10030C002395F6CF442319F441E01A95F1CF2196A9
:10031C000881C150088321962395EACF089557454B
:10032C004C434F4D45000000746F000041627365F3
:10033C006E63652050726F6772616D0000004D65D1
:10034C006E753A20202031416273656E6365000042
:10035C0032496E73657274203344656C6574650044
:10036C000000496E7075742054696D65203A000068
:10037C00496E73657274204E504D203A00004465EE
:10038C006C657465204E504D203A0000496E7075B6
:10039C0074204E504D203A00000046696E69736817
:0203AC0000004F
:00000001FF
