:020000020000FC
:020000000DC031
:10001C000FE50DBF02E00EBF35D10FEF0ABB04BBDD
:10002C0045D110E020E040E034E656D100EF07BBAC
:10003C000FE008BBC0E6D0E000C00FE008BB00003A
:10004C00000006B3006F0F3F09F4F7CF0FEB08BBAE
:10005C000000000006B3006F0F3F09F4C1F006B3B7
:10006C000F70073011F481E092C006B30F700B30A3
:10007C0011F484E08CC006B30F700D3011F487E0DE
:10008C0086C006B30F700E30C1F68AE080C00FED4B
:10009C0008BB0000000006B3006F0F3F09F4C1F06D
:1000AC0006B30F70073011F482E071C006B30F7005
:1000BC000B3011F485E06BC006B30F700D3011F4EA
:1000CC0088E065C006B30F700E3059F480E05FC055
:1000DC000FEE08BB0000000006B3006F0F3F11F4D9
:1000EC00C9F0ABCF06B30F70073011F483E04FC0EB
:1000FC0006B30F700B3011F486E049C006B30F70D5
:10010C000D3011F489E043C006B30F700E308BE054
:10011C003EC093CF0FE708BB0000000006B3006F92
:10012C000F3F09F4B9F006B30F70073011F48CE0EF
:10013C002EC006B30F700B3011F48DE028C006B33F
:10014C000F700D3011F48EE022C006B30F700E301C
:10015C008FE01DC072CFF3E0E8E8B6D075D0A6D022
:10016C00F3E0E2E9B1D070D0A1D0F3E0E6E9ACD095
:10017C006BD070E09BD0F3E0E8EAA6D070D0F3E04F
:10018C00EAEBA2D05ACFF5CF73E690D056CF8C3095
:10019C0011F38D30C9F38E30B1F38B3081F18A308D
:1001AC0041F07030B9F4813069F08230C1F08330A5
:1001BC00F1F0713039F0723091F07330C1F074306D
:1001CC0031F13BCF71E072D0F3E0ECEC7DD047D055
:1001DC004FD033CF382F00E3300F6FD02ECF72E0DB
:1001EC0065D0F3E0EAED70D03AD042D026CF73E080
:1001FC005DD0F3E0E8EE68D032D03AD01ECF71304B
:10020C0031F0723061F0733051F0743041F074E0C1
:10021C004DD0F3E0E6EF58D022D02AD00ECFF4E048
:10022C00E4E044D051D0743091F37230C1F27330A9
:10023C00F1F23CD002CF6CE004E0D998602765BBAA
:10024C00D89AD89815D0F9CF90E0D9986CE165BBC5
:10025C00D89AD8980DD093959331B9F70895D99829
:10026C0067EA65BBD89AD89803D030E226D00895B7
:10027C0041E055E465E46A95F1F75A95E1F74A9542
:10028C00D1F70895D99868E365BBD89AD898F0DF70
:10029C00D9986FE065BBD89AD898EADF07D0D9987F
:1002AC0066E065BBD89AD898E3DF0895D99861E0E9
:1002BC0065BBD89AD898DCDF08959395D99A35BB4D
:1002CC00D89AD898D5DF0895C895002021F0302D04
:1002DC00F4DF3196F9CF089521E0D0E0C0E6321773
:1002EC002AF00FEF088321962395F9CF10E008959B
:1002FC0021E040E0D0E0C0E6121732F00881301760
:10030C0011F02395F9CF41E00895F2DF442311F069
:10031C0040E00895212F40E0D0E0C0E6C10FCA951F
:10032C00222349F00881031732F0C3950883CA953C
:10033C00CA952A95F5CF41E01395C3953883089556
:10034C0021E040E0D0E0C0E61217A2F0442331F4E3
:10035C000881301719F021962395F6CF442319F410
:10036C0041E01A95F1CF21960881C150088321965E
:10037C002395EACF0895BD3959DFFF6C57454C439F
:10038C004F4D45000000746F0000416273656E6351
:10039C00652050726F6772616D0000004D656E755F
:1003AC003A20202031416273656E6365000032494A
:1003BC006E73657274203344656C6574650000005F
:1003CC00496E7075742054696D65203A0000496E51
:1003DC0073657274204E504D203A000044656C6574
:1003EC007465204E504D203A0000496E7075742093
:1003FC004E504D203A00000046696E69736800004B
:00000001FF
